:1000000088830020E1020000DD020000DD02000024
:10001000DD020000DD020000DD0200000000000043
:10002000000000000000000000000000DD020000F1
:10003000DD02000000000000DD020000DD02000023
:10004000DD020000DD020000DD020000DD02000034
:10005000DD020000DD020000DD020000DD02000024
:10006000DD020000DD020000DD020000A912000038
:10007000DD020000DD020000DD020000DD02000004
:10008000DD020000DD020000DD020000DD020000F4
:10009000DD020000DD020000DD020000DD020000E4
:1000A000DD020000DD020000DD020000DD020000D4
:1000B000DD020000DD020000DD020000DD020000C4
:1000C000DD020000DD020000DD020000DD020000B4
:1000D000DD020000DD020000DD020000DD020000A4
:1000E000DD020000DD020000000000000000000052
:1000F00000000000D9110000DD020000DD02000058
:10010000DD020000DD020000DD020000DD02000073
:10011000DD020000DD020000DD020000DD02000063
:10012000DD020000DD020000DD020000DD02000053
:10013000DD020000DD020000DD020000DD02000043
:10014000DD020000DD020000DD020000DD02000033
:10015000DD020000DD0200000000000000000000E1
:10016000000000000000000000000000000000008F
:10017000000000000000000000000000000000007F
:10018000F52B0000012C00000D2C0000192C0000A4
:10019000DD020000B51E0000DD020000DD020000EF
:1001A000DD020000DD020000DD020000DD020000D3
:1001B000DD020000DD020000DD020000DD020000C3
:1001C000DD020000DD020000DD020000DD020000B3
:1001D000DD020000DD020000DD020000DD020000A3
:1001E000DD020000DD020000DD020000DD02000093
:1001F000DD020000DD020000DD020000DD02000083
:10020000DD0200000000000000000000DD02000030
:10021000DD020000DD020000DD020000B52C000060
:10022000DD020000DD020000DD020000DD02000052
:10023000DD020000DD020000DD020000DD02000042
:10024000DD020000DD020000DD020000DD02000032
:10025000DD020000DD020000DD020000DD02000022
:100260000000000010B5054C237833B9044B13B1DE
:100270000448AFF300800123237010BD4800002024
:1002800000000000683200000C4B43B10C480D49DF
:1002900010B5AFF300800C48036823B910BD0A48BD
:1002A000036833B97047094B002BF7D0BDE8104005
:1002B0001847064B002BF5D0184700BF0000000080
:1002C000683200004C00002068320000000000008E
:1002D00008B5014B984708BDB5080000FEE70000CF
:1002E00008B5154B154A9A4209D0134B134A03E03F
:1002F000116819600433043211498B42F8D3114B51
:1003000002E000221A6004330F4A9342F9D30F4BE4
:100310000F4A22F07F029A60D3F8882042F47002DC
:10032000C3F88820BFF34F8FBFF36F8F094B9847F7
:10033000094B9847FEE700BF00000020683200002C
:1003400048000020480000208403002000ED00E069
:100350000000000021300000252C0000044A136A30
:1003600043F0800313624022024BC3F82021704700
:1003700000080040001C004008B5064A536943F4D9
:1003800000735361044B9847024604490448054BE7
:10039000984708BD00080040A51200000024004056
:1003A0000C030020B10C000030B45A4B4FF4006530
:1003B000C3F88450584AC3F8A8205848C3F8A80086
:1003C00093F8CB2002F0FB0283F8CB2093F8CB20EC
:1003D00002F0FE0242F0010283F8CB2093F8B52030
:1003E00002F00F0242F0700283F8B5204FF48072E1
:1003F0009A604B4999624FF040449C625A6193F86D
:10040000482002F0FB0283F8482093F8482002F0CD
:10041000FE0242F0010283F8482093F8342002F0F3
:10042000F00242F0070283F834204FF400729A6021
:1004300001F5807199629C625A6193F8492002F03B
:10044000FB0283F8492093F8492002F0FE0242F0B3
:10045000010283F8492093F8342002F00F0242F0A1
:10046000700283F834204FF4806199602D4A9A62BB
:100470009C62596193F84A2002F0FB0283F84A20FB
:1004800093F84A2002F0FE0242F0010283F84A206B
:1004900093F8352002F0F00242F0070283F835208D
:1004A0009D60214A9A629C625D6193F84B2002F044
:1004B000FB0283F84B2093F84B2002F0FE0242F03F
:1004C000010283F84B2093F8352002F00F0242F02E
:1004D000700283F83520C3F88410144AC3F8A820AA
:1004E000C3F8A80093F8CA2002F0FB0283F8CA20E0
:1004F00093F8CA2002F0FE0242F0010283F8CA20FB
:1005000093F8B52002F0F00242F0070283F8B5201C
:1005100030BC70470080004100080240000002C06B
:1005200000010040000400400008004000040240B8
:10053000064B1A6942F400521A611A6942F4001219
:100540001A61DA6942F40052DA617047000800402B
:1005500008B5044B984704490448054B9847054B98
:10056000984708BD310500000034004240030020D8
:10057000B50A0000A9030000164B93F8502002F0C2
:10058000FB0283F8502093F8502002F0FE0242F064
:10059000010283F8502093F8382002F0F00242F074
:1005A000020283F8382093F8512002F0FB0283F80E
:1005B000512093F8512002F0FE0242F0010283F82C
:1005C000512093F8382002F00F0242F0200283F805
:1005D0003820704700800041064B4022C3F8A0201D
:1005E0004322C3F88C20044A536943F400535361F7
:1005F000704700BF001C00400008004008B5044BD5
:10060000984704490448054B9847054B984708BD4F
:10061000D9050000003400404403002075090000A3
:10062000790500002E4B4FF48052C3F89420C3F894
:10063000882002F18042C3F8A8204FF04041C3F85F
:10064000A81093F8CC2002F0FE0242F0010283F8D9
:10065000CC2093F8B62002F0F00242F0020283F8B8
:10066000B6204FF40052C3F89420C3F8882002F15A
:100670008042C3F8A820C3F8A81093F8CD2002F058
:10068000FE0242F0010283F8CD2093F8B62002F07A
:100690000F0242F0200283F8B6204FF40042C3F864
:1006A0008420104AC3F8A820A2F18022C3F8A82011
:1006B00093F8CF2002F0FB0283F8CF2093F8CF20ED
:1006C00002F0FE0242F0010283F8CF2093F8B72037
:1006D00002F00F0242F0200283F8B720704700BFFB
:1006E0000080004100800240064B4022C3F80821F0
:1006F0004322C3F88C20044A136A43F001031362B7
:10070000704700BF001C00400008004008B5054BC2
:1007100098474FF086410448044B9847044B98474C
:1007200008BD00BFE906000028030020E90A000018
:1007300025060000184B93F8552002F0FE0242F007
:10074000010283F8552093F83A2002F00F0242F09C
:10075000600283F83A2093F8562002F0FE0242F03D
:10076000010283F8562093F83B2002F0F00242F099
:10077000060283F83B2093F8572002F0FE0242F075
:10078000010283F8572093F83B2002F00F0242F059
:10079000600283F83B20704700800041044A93695F
:1007A00043F4006393614022024BC3F8E420704796
:1007B00000080040001C004008B5064B9847064B57
:1007C0009847064B9847024605490648064B984706
:1007D00008BD00BF9D07000035070000AF1E0000E8
:1007E00000600141F0020020C90900001E4B4FF0DB
:1007F00080729A604FF0804199621C4898625A61F9
:1008000093F8582002F0FB0283F8582093F8582000
:1008100002F0FE0242F0010283F8582093F83C20D7
:1008200002F0F00242F0070283F83C204FF0007221
:100830009A6099620E4999625A6193F8592002F0C0
:10084000FB0283F8592093F8592002F0FE0242F08F
:10085000010283F8592093F83C2002F00F0242F085
:10086000700283F83C20704700800041000100C006
:10087000000200C04022074BC3F8A820A3F5A053F4
:100880001A6942F480621A619A6942F001029A611F
:10089000704700BF001C004008B5034B9847034B4E
:1008A0009847034B984708BD750800004D0F00009E
:1008B000ED07000008B5084B9847084B9847084BD0
:1008C0009847084B9847084B9847084B9847084B60
:1008D0009847084B984708BD191000005D030000B9
:1008E0005105000079030000FD0500000D07000020
:1008F000B907000099080000EFF31083036072B697
:10090000BFF35F8F7047BFF35F8F036883F3108877
:100910007047000010B584B00389ADF80430144668
:1009200002924FF40043ADF80630039101A9143848
:10093000034B984710B9204604B010BD0446FAE7AF
:10094000D516000010B584B00389ADF80430144604
:10095000029248F20103ADF80630039101A9143860
:10096000034B984710B9204604B010BD0446FAE77F
:10097000D516000038B50D4604465E220849003001
:1009800018BF0120074B984729462046064B984739
:10099000034618B9054AA261054A6261184638BD86
:1009A00090300000B90F0000A516000045090000B6
:1009B0001509000008B5436903B1984708BD08B59B
:1009C000836903B1984708BD38B50D46044688B120
:1009D00071B1012033220849084B98472946204627
:1009E000074B9847074B2360074B6360002038BDD7
:1009F0000020EFE70020EDE7AC300000B90F000069
:100A0000B91C0000B5090000BF09000010B504467C
:100A10004A220949003018BF0120084B9847204658
:100A2000074B984720B92046064B9847002010BD39
:100A30006FF0100010BD00BFAC300000B90F000017
:100A40009D1E0000551E000010B50446582209499D
:100A5000003018BF0120084B98472046074B9847A5
:100A600020B12046064B9847002010BD6FF01000C3
:100A700010BD00BFAC300000B90F00009D1E00008B
:100A8000691E000070B50D46164604467C220649D4
:100A9000003018BF0120054B9847324629462046B2
:100AA000034B9847002070BDAC300000B90F000028
:100AB0007D1E000038B50C46054660B149B10120E5
:100AC00031220649064B984721462846054B984750
:100AD00038BD0020F4E70020F2E700BFC43000007A
:100AE000B90F0000A111000038B50D460446C0B191
:100AF000A9B1012040220C490C4B9847204640F8F0
:100B0000045F29460A4B9847002807DB4FF400434F
:100B1000A382084B2361084BE360002038BD00200E
:100B2000E8E70020E6E700BFE0300000B90F000072
:100B300085190000BD0B0000810B000030B585B0A9
:100B40000C46054698B181B10120B32209490A4BF0
:100B500098472368019363680293A368039301A9EC
:100B6000281D064B984705B030BD0020EDE700205A
:100B7000EBE700BFE0300000B90F0000011B0000F0
:100B800070B584B00E4615460446A32208490030CD
:100B900018BF0120074B9847002302930196039545
:100BA00001A9A4F10C00044B984704B070BD00BF2C
:100BB000E0300000B90F00003D0B000070B584B0BC
:100BC0000E461546044687220849003018BF01200A
:100BD000074B9847029600230193039501A9A4F1BE
:100BE0000C00044B984704B070BD00BFE03000001B
:100BF000B90F00003D0B0000F8B5076817B13C467F
:100C000000260BE00E4B9847F8BDA5682B449B1AB5
:100C100001338D68AB4209D22646246834B163683B
:100C20009342F2D8A5689B1A2B44F2E7BC4203D04A
:100C30003046044B9847F8BD014B9847F8BD00BFBC
:100C4000D50F000001100000F8B5446906690136AF
:100C50000661037E13F0010F05D1037E13F0020F2E
:100C600001D1054609E0037E43F002030376F8BD97
:100C70006F69E368204698473C469CB16368F31A65
:100C8000A26893420ED305F114073846064B9847E5
:100C9000237C012BECD16660324621463846034B5B
:100CA0009847E5E7F8BD00BF09100000F90B000008
:100CB00038B50D46044680B169B101203B22084990
:100CC000084B984729462046074B9847002020614B
:100CD000064B236038BD0020F0E70020EEE700BFA0
:100CE000FC300000B90F00003D120000490C00006C
:100CF0000023032B21DC134A02EB4312517881427B
:100D00001DD010B409E001335BB2032B0FDC0D4A98
:100D100002EB4312517881420BD05A01094CA25C7C
:100D2000002AF0D100F00F028A42ECD101E04FF02E
:100D3000FF3318465DF8044B70474FF0FF331846F9
:100D4000704700BF640000200020704738B504469B
:100D50000D46094B9847094B03EB40139B78032B37
:100D600001D0002038BD054B03EB401083692946B4
:100D70002046984738BD00BFF10C000064000020F9
:100D80002DE9F04184B007460D469046484B984700
:100D90000446484E06EB4016002D4FD1454A43010C
:100DA0000020F070D35C7BB1424B03EB4413012273
:100DB0009A70404B03EB4414E3694246E1783846AD
:100DC000984704B0BDE8F081B37896F90C40032B46
:100DD00008D0F36906F10C020021707898470223CD
:100DE000B370EEE7F36906F10C02012170789847C1
:100DF00070B10523B3700223F370002C06DB70780A
:100E000040F0800001212C4B9847DAE77078F9E731
:100E10000423B370737800220192029294420ADB99
:100E200043F080038DF80C3001238DF80D3001A8BC
:100E3000224B9847C5E703F00F03F3E7012D0AD0D3
:100E4000022D1CD0032D2AD01A4B03EB401306228F
:100E50009A70DA70ADE7174A4301D1180220C870C2
:100E6000D35C2BB1134B03EB441305229A70A0E71C
:100E70000B469870002138460F4B984799E70D4A6A
:100E80004301D1180420C870D35C2BB1094B03EB8C
:100E9000441301229A708CE702238B7091E7054B73
:100EA00003EB401300229A700522DA7081E700BF3D
:100EB000F10C00006400002055280000112A0000F9
:100EC0002DE9F04105461D4B98470646440104F1C3
:100ED00008031B4C1C44043421462846194B9847F0
:100EE000C0B2082809D001212846174CA04701218B
:100EF00045F08000A047BDE8F08100212846124F50
:100F0000B84745F0800800214046B8470C4B03EB3A
:100F1000461301229A705B6921462846984708B11A
:100F2000BDE8F081064B03EB46160523B3700121A3
:100F30002846B84701214046B847F1E7F10C0000C8
:100F4000640000209D2900005528000010B5124BB8
:100F5000984700281EDB802200211048104B98473C
:100F600000220AE00D4B03EB4213FF2159700D499B
:100F700059619961D9610132D2B2032AF2D90A4981
:100F800000200A4CA0470A490120A0470949022035
:100F9000A047002010BD00BF8D2700006400002086
:100FA0007F300000490D0000C10E0000C52B00007D
:100FB0004D0D0000810D000000B900BE70470368B0
:100FC0001BB18B4203D01B68FAE700207047012059
:100FD0007047000038B504460D46064B984780F030
:100FE000010039220449C0B2044B984723682B60A2
:100FF000256038BDBF0F000014310000B90F00009C
:1010000003680B600160704703681BB11A680260D7
:10101000184670470020704708B5084A13889BB2ED
:101020001380074B9847074B9847074B9847074B48
:10103000984740F6FF70064B984708BD00400041B6
:10104000A1100000B510000095100000B9100000BC
:101050005510000010F0010F08D00B4A0B4B1A621C
:101060000A4B5A6843F6FD731A42F9D110F0080F83
:1010700008D0074A054BDA62044B5A6843F6FD7301
:101080001A42F9D1704700BF06010100001C004060
:10109000040101000122014B5A7170470008004011
:1010A000034BDA6902F47C52DA6101221A74704748
:1010B0000014004070470000364A136A23F00F0303
:1010C00043F004031362334B5A6843F6FD731A422C
:1010D000F9D1304B5B6813F0040FFAD12E4B00228C
:1010E0001A772E4A9A622C4B93F82C3013F0100F7B
:1010F000F9D10022284B83F82020274B93F82C307D
:1011000013F0040FF9D10222234B1A77224B93F8E4
:101110002C3013F0020FF9D11F4B5A6A5A621E4B42
:1011200093F82C3013F0080FF9D188221A4B83F86A
:101130002020194B93F82C3013F0040FF9D1164BE3
:1011400093F8203013F0010F1DD0134B1B6903F4EB
:101150001063B3F5106FF8D10E4B5B68002BFBD119
:101160000C4A136A23F00F0343F006031362094B82
:101170005A6843F6FD731A42F9D1064B5B6813F0C7
:10118000040FFAD17047044B1B6913F4807FFAD027
:10119000E2E700BF001C0040001000400000010416
:1011A00038B50C46054688B171B101204022084986
:1011B000084B98472C6001232360112363604FF490
:1011C000FE43A360002038BD0020EFE70020EDE7DC
:1011D00034310000B90F000000B583B00D4B9B788F
:1011E000DBB20193019B13F0020F06D00A4B1B6880
:1011F0001BB1084A5068984709E0019B13F0010FA2
:1012000005D0054B5B6813B1024A5068984703B09C
:101210005DF804FB0000024164030020C3689B8961
:1012200013F4807F09D010B50446036803B19847D2
:10123000E3684FF480729A8110BD704738B50D464F
:10124000044630221449003018BF0120134B984740
:10125000E56001232B802A6948F203031A42FAD180
:10126000E3681A6912F0010FFBD148F280021A807C
:10127000196948F203021142FAD1E268202313628D
:10128000136913F0600FFBD1E3684FF480725A8149
:10129000034B1C60002038BD4C310000B90F00002A
:1012A000E40000200020704708B5024B1868024B8C
:1012B000984708BDE40000201D12000070B487B0FC
:1012C00006466C460C4D0FCD0FC495E8030084E82C
:1012D0000300002005280AD806AB03EB800353F86F
:1012E000183CB34201D00130F4E7C0B200E0002066
:1012F00007B070BC704700BF6431000008B50D4BEB
:101300009847002343B140F2A6320B4900200B4B13
:1013100098474FF0FF3008BD03EB4302D100084A65
:101320000A4492F83020904202D00133DBB2E9E760
:1013300058B208BDBD120000D0310000B90F000046
:101340006431000038B505460C460846334B9847D3
:10135000C0B2E36913F0010F22D100EB4003DA00C1
:101360002F4B13445A6B02F01C02E36913F0030F76
:10137000FBD1236813F0020F0BD0236823F0020384
:101380002360E36913F0030FFBD1E36913F0020F4D
:10139000FBD142F001022260E36913F0030FFBD19D
:1013A000E36913F0010FFBD100EB4003DA001C4BA3
:1013B00013445B6B2360E36913F0030FFBD100EB75
:1013C0004003DA00164B13449B6B6360E36913F030
:1013D000040FFBD142000244D100114B0B44DA6BE5
:1013E000E26093F8373003F00303AB81012B94BF25
:1013F00000230123626A22F4804242EA833363625B
:10140000E36913F0040FFBD100EB4000C200044B72
:101410001344B3F84230EB81002038BDFD120000C8
:101420006431000070B5054604692668C6F3C066DD
:1014300040F2A5529949003018BF0120984B9847B7
:101440006B68012B57D0636823F480236360E369E2
:1014500013F0040FFBD12B8813F4806F56D06A88E9
:1014600012F0010F04D06A8892B242F480626A805E
:1014700040F2FE7202EA4302E36913F0040FFBD16B
:10148000636A03F48043134343F400436362E369F4
:1014900013F0040FFBD12E694FF6FF72337EDBB2DF
:1014A0001846511E1AB10A4613F0030FF6D02268EF
:1014B000C2F3C062E36913F0040FFBD1638B9BB2EC
:1014C00010F0010F00F09C8013F0020F32D00122C7
:1014D00022766A8892B242F480526A806A8892B216
:1014E00022F4807292B26A8013F0010F00F0D18072
:1014F0006FF0040070BD002EA5D0636843F4802314
:101500006360E36913F0040FFBD1A4E75B00DBB277
:101510006A8802F001021A43E36913F0040FFBD159
:10152000636A03F4804313436362E36913F0040FB7
:10153000FBD1B0E713F0040F1FD16B8813F4806F59
:1015400039D02B881B125B0003F00602E36913F00D
:10155000040FFBD1636A03F48043134343F0F103A8
:101560006362E36913F0040FFBD16B889BB223F431
:1015700080639BB26B80002070BD6B68002B04DD24
:101580006B889BB243F480536B806B8813F4004FDD
:1015900008D16B889BB223F480739BB26B806FF091
:1015A000010070BD636843F440336360E36913F086
:1015B000040FFBD1EDE7686898B96B8813F4004F0E
:1015C00006D16B889BB223F480739BB26B8070BD95
:1015D000636843F440336360E36913F0040FFBD1A5
:1015E000EFE7AB681B78A362E36913F0040FFBD14C
:1015F000AB680133AB606B68013B6B60002070BD72
:1016000010F0020F48D0696800293DD013F0040F94
:101610003AD10139696001B9E2B1012918D06B688A
:101620004BB96B8813F4004F1DD16B889BB223F428
:1016300080739BB26B80AA68531CAB60E36913F0A4
:10164000040FFBD1A36A137002232376002070BD20
:10165000002AE4D0636843F480236360E36913F0F5
:10166000040FFBD1DBE7636823F480736360E369F5
:1016700013F0040FFBD1636843F440336360E36904
:1016800013F0040FFBD1D0E7022323766FF00100A3
:1016900070BD6FF0030070BD002070BDD031000040
:1016A000B90F000038B50D4604464FF4A362064951
:1016B000003018BF0120054B984725612946204678
:1016C000034B984738BD00BFD0310000B90F000070
:1016D000451300002DE9F04105460E460469DFF888
:1016E000A0824FF4BA624146003018BF0120A24FD9
:1016F000B847286940F2D1524146003018BF012056
:10170000B84740F2D2524146301C18BF0120B847BA
:101710006B8813F4807F40F02A8173889BB243F476
:101720008073738096E8070085E80700636843F4D8
:1017300080736360E36913F0040FFBD128468F4B7D
:1017400098470346002800F0B0806A8892B222F4DD
:10175000807292B26A80BDE8F0816FF00400B7E059
:10176000738813F4004F07D16B889BB223F4807306
:101770009BB26B80BDE8F081636843F440336360E3
:10178000E36913F0040FFBD1EEE713F0040F1FD150
:101790006B8813F4806F39D02B881B125B0003F029
:1017A0000602E36913F0040FFBD1636A03F480437C
:1017B000134343F0F1036362E36913F0040FFBD1B9
:1017C0006B889BB223F480639BB26B8000206BE03C
:1017D0006B68002B04DD6B889BB243F480536B80F5
:1017E0006B8813F4004F08D16B889BB223F480738D
:1017F0009BB26B806FF0010056E0636843F44033A6
:101800006360E36913F0040FFBD1EDE7686898B9F2
:101810006B8813F4004F06D16B889BB223F480735E
:101820009BB26B8040E0636843F440336360E369DC
:1018300013F0040FFBD1EFE7AB681B78A362E369F9
:1018400013F0040FFBD1AB680133AB606B68013B55
:101850006B60002028E017F0020F00F083806968B9
:10186000002977D013F0040F74D10139696009B9E8
:10187000002A55D0012951D06B684BB96B8813F4FD
:10188000004F56D16B889BB223F480739BB26B8060
:10189000AA68531CAB60E36913F0040FFBD1A36A81
:1018A000137002232376002003466A8812F4807F97
:1018B0005AD028694FF6FF72037EDBB21F46511ED5
:1018C000002A3FF44AAF0A4613F0030FF4D0002079
:1018D00000287FF445AF2268C2F3C062E36913F0C9
:1018E000040FFBD1638B9BB217F0010FB3D013F041
:1018F000020F3FF44AAF012222766A8892B242F484
:1019000080526A806A8892B222F4807292B26A80AF
:1019100013F0010F23D06FF00400C5E7002AABD00D
:10192000636843F480236360E36913F0040FFBD121
:10193000A2E7636823F480736360E36913F0040F24
:10194000FBD1636843F440336360E36913F0040F31
:10195000FBD197E7022323766FF00100A4E76FF035
:101960000300A1E700209FE71846BDE8F0816FF073
:101970000500BDE8F08100BFB90F0000251400008C
:10198000D031000070B506460C460846584B9847C3
:101990000023002B68D00025002E71D0002C6DD0C4
:1019A000012040F63F125349534B9847002D00F059
:1019B0009C80E36913F0010F1DD12B6803F01C021A
:1019C000E36913F0030FFBD1236813F0020F0BD070
:1019D000236823F002032360E36913F0030FFBD1B4
:1019E000E36913F0020FFBD142F001022260E369C8
:1019F00013F0030FFBD1E36913F0010FFBD1346047
:101A00002B6803F01C03082B3CD0002C69D0002D60
:101A100065D0012040F609123649374B98472B68AC
:101A200023F4817323F001032360E36913F0030FB0
:101A3000FBD16B6823F4383323F4107343F4003381
:101A40006360E36913F0170FFBD12B7B23736B7B70
:101A500084F830306B6813F0070F44D101233371E1
:101A6000EB89F380002070BD042802D00133DBB283
:101A70008FE703EB0315214B1D448DE7002090E712
:101A800000208EE74CB335B3012040F61D121949F2
:101A9000194B98472B6823F4817323F001032360CB
:101AA000E36913F0030FFBD16B6823F4083323F4CD
:101AB000107343F4003343F410736360E36913F06D
:101AC000170FFBD1AB6863626B7B84F83030E3693E
:101AD000002BFCD1BEE70020D7E70020D5E700208F
:101AE00098E7002096E70223B9E76FF00C0070BD7D
:101AF000BD120000D0310000B90F0000BC31000061
:101B0000F0B587B007460D4604680B6801934B6833
:101B100002930023039304930679B8B1A4B1012082
:101B200040F6A3223449354B9847E36913F0070F79
:101B30005FD1E36913F0030FFBD1236813F0020FA9
:101B40001ED16FF0130052E01846E9E70020E7E7E6
:101B500000222BE091F801E040EA0E2002310191D1
:101B600001320392A06213F0800F32D100200028CE
:101B700037DB0398AB68984202D3049A934230D97A
:101B8000237EDBB213F0040FE2D0A16A029A4AB1BD
:101B9000501C02901170012E04D9901C0290C1F3C8
:101BA00007215170049A013204920122002ADAD1ED
:101BB000039A04999142D6D3F88813F0010FD2D03A
:101BC00001990029CCD0481C01900878012EC1D879
:101BD000C6E74FF6FF736383802323766FF012000E
:101BE000C5E7237E13F0030FFBD00323237607B052
:101BF000F0BD6FF00300FAE7D0310000B90F00002C
:101C0000034B984200D07047024B1960FBE700BFBE
:101C100000600141E800002038B505460469E36A28
:101C200013F0010F04D00123E362036803B1984766
:101C3000A36A13F0080F05D00823E3626B680BB1A9
:101C40002846984738BD000000233BB1002070476C
:101C500003EB43042301084618440CE010B403EBE3
:101C600043010A0105498A588242F1D00133DBB2AF
:101C7000002BF4D000205DF8044B704700000020DA
:101C8000002323B100207047094808440DE010B438
:101C900003EB83029100074A0A44126B8242F3D09D
:101CA0000133DBB2002BF3D000205DF8044B70470A
:101CB0003000002000000020F8B507460C4608461A
:101CC000604B9847002800F0B280064620465E4BE5
:101CD00098470546002800F0AD803C61A36813F0EA
:101CE000010F19D1A36813F0030FFBD1236813F080
:101CF000020F0BD0236823F002032360A36813F0C4
:101D0000030FFBD1A36813F0020FFBD10123236063
:101D1000A36813F0030FFBD1A36813F0010FFBD1ED
:101D2000B3682360A36813F0030FFBD1337B6371A7
:101D3000737BA377336923622B69E363A368C3F3DF
:101D40000D03002BFAD1AB682364A36813F0800F56
:101D5000FBD1AB68F362AB79052B6ED8DFE803F0FB
:101D6000033F474F575FEB6873616364A36813F4E5
:101D70007C5FFBD10223237139462046334B9847C1
:101D8000B5F90430002B0DDB5A0903F01F030121C4
:101D900001FA03F320322E4941F82230BFF34F8F6E
:101DA000BFF36F8FB5F90430002B09DB5A0903F03C
:101DB0001F03012101FA03F36032254941F8223063
:101DC000B5F90430002B3BDB590903F01F03012256
:101DD00002FA03F31E4A42F821300020F8BDEB68F6
:101DE000B361A364A36813F47C5FFBD1C2E7EB6823
:101DF000F361E364A36813F47C5FFBD1BAE7EB689B
:101E000033622365A36813F47C5FFBD1B2E7EB6810
:101E100073626365A36813F47C5FFBD1AAE7EB6888
:101E2000B362A365A36813F47C5FFBD1A2E76FF0F4
:101E30000900F8BD6FF00900F8BD6FF01B00F8BD98
:101E40000020F8BD491C0000811C0000011C00009E
:101E500000E100E00269136843F002031360936835
:101E600013F0030FFBD170470269136823F00203DC
:101E70001360936813F0030FFBD1704770B50E46E3
:101E8000154604692046044B984720B1E6668379DD
:101E90001C3344F8235070BD811C00000269936814
:101EA00013F0030FFBD11068C0F34000704700200F
:101EB0007047000008B5024B1868024B984708BDF0
:101EC000E8000020191C000000207047144B1A681D
:101ED000C2F34413C2F3822112F01F0203D01F2A5F
:101EE00002D1092200E009221BB11F2B02D11923C4
:101EF00000E0192319B1072902D1062100E00621CB
:101F000043EA821343EA01334FF082421385D378C8
:101F100043F00303D370D37843F00C03D3707047BE
:101F20008400800038B5837C03F00F03C27C02F08C
:101F3000070101290CD003F10802520102F182428B
:101F40001021D1715B0103F1824383F8081138BD80
:101F500012F0400F0CD0C27C6FF38612C27403F1F2
:101F60000802520102F18242802111714021517117
:101F7000C27C6FF3C302C27409495A018C18002550
:101F8000A572A57608335B0103F182436F24DC71EF
:101F900002F1824282F808418B6E807C984738BDFE
:101FA000EC00002008B5837C03F00F03202202FA26
:101FB00001F1C9B25B0103F1824383F80811034BBD
:101FC0001B6F82680121807C984708BDEC000020CF
:101FD00038B5847CFF2C03D0C37C13F0400F00D1B4
:101FE00038BDC27C6FF38612C274034A156F8268D3
:101FF0002046A847F4E700BFEC00002030B583B0CE
:10200000847C194D2D88ADF80450FF2C22D004F0AB
:102010000F03C47C14F0400F1CD0E9B103F1080495
:10202000640104F18244802525710C4602A90C4408
:1020300014F8041C03F108056D0105F18245E971EE
:1020400014F8041C5B0103F1824383F80811114664
:10205000064B984703B030BD03F10804640104F156
:10206000824440256571E0E7EC310000D11F00009B
:1020700070B582B0837C03F00F03404A9288ADF8BC
:1020800004203F4A02EB43120C46A9B303F10801B6
:10209000490101F182410D78C5F30215C17C01F0BF
:1020A000070602EB0412917AC9B2022D2DD011F06D
:1020B000020F49D0917A6FF34101917202AA11196E
:1020C00011F8045C03F10802520102F18242D57159
:1020D00011F8042C5B0103F1824383F80821012EDF
:1020E0004AD1C37C13F0400F46D0D9098C4243D06B
:1020F0000022244B98473FE003F10801490101F118
:1021000082410D7805F00705C8E711F0010FCED028
:10211000917A6FF30001917202AA111911F8045C0F
:1021200003F10802520102F18242D57111F8042C28
:102130005B0103F1824383F808210422211C18BFAC
:102140000121104B984717E004EB43010C4A02EBC6
:1021500001120021917202AA144414F8041C03F124
:102160000802520102F18242D17114F8042C5B0181
:1021700003F1824383F8082102B070BDEC31000006
:10218000EC000020FD1F000070B5002419E0114E86
:1021900006F16000A5002A199300103318440321AA
:1021A00004300D4B98472A1993003344FF2283F8DB
:1021B00086202544AB001E44002386F88730013476
:1021C000E4B2082CE3D9602200210248034B98476F
:1021D00070BD00BFEC000020D11F00007F30000068
:1021E0002DE9F0410546847C04F00F04524B03EBCB
:1021F00044130E4600294FD05869C0F30D002B8AB6
:1022000040F2FF32934249D0013B1BB20340EF7CC6
:1022100007F0070736B104F10802520102F18242C9
:102220000221D171A9680144A9606A68914245D22E
:1022300092B28BB2D21A92B2EB7C13F0200F2FD055
:10224000B5F81080424500D890462B6842461944A4
:10225000E8683A4B9847EA68374B03EB44131A6136
:10226000354B03EB44135A6968F30D025A615A69FE
:102270006FF39B325A613EB9012F5BD04A22630152
:1022800003F1824383F809210834640104F1824494
:1022900080236371BDE8F0810020B0E71BB2B5E791
:1022A000B2F5005F07D890462B681944224B03EB28
:1022B00044131961D4E74FF40058F5E7EA7C12F0B3
:1022C000100F0FD0EB7C6FF30413EB741A4B03EB7E
:1022D00044135A696FF30D025A615A696FF39B32C6
:1022E0005A61C8E7012F0ED0640104F182444A22EA
:1022F00084F808212A8A93420CD000212846104BEA
:102300009847BDE8F081640104F182444B2284F8CF
:102310000821EFE7EB7C6FF38613EB74064BDB6E63
:10232000A968A87C98470028B4D1EB7C43F040030F
:10233000EB74E2E74E22A2E7EC00002069300000D7
:10234000D11F00002DE9F84F0446857C05F00F05EC
:102350000F46002950D0684B03EB45135B68C3F36D
:102360008D3A002F4BD0644B03EB45135B68C3F3EE
:102370000D09268A40F2FF339E4201D0013EB6B2DB
:1023800009EA060B94F8138008F0070837B105F145
:1023900008035B0103F182430122DA71E37C13F04D
:1023A000200F0ED0626862B192B2A06883B2D21AD6
:1023B00092B223681844E168934500D25A464F4BC5
:1023C00098476368F3B9E27C12F0100F1AD0E37CEF
:1023D00003F0EF0343F02003E374E06846496A0129
:1023E0008B188850218A5A6861F39B325A605A6868
:1023F0006FF30D025A6044E04FF0000AB1E74FF06E
:102400000009B6E7EFB1228A93451AD2E37C6FF355
:102410000413E374A3684B44A360B8F1010F5DD0CB
:102420006B0103F18243252283F808211DB9E2687C
:102430006D01314B5A5100212046314B9847BDE880
:10244000F88FA2685244A2609342E6D99BB291B23F
:102450005B1A9BB2E17C11F0200F24D0268AB34294
:1024600000D81E46E1686B01234AD150224B03EB92
:1024700045135A6866F39B325A605A686FF30D022F
:102480005A6047B9B8F1010F2FD025226B0103F133
:10249000824383F8092108356D0105F18245402307
:1024A0002B71BDE8F88F218A8B420AD9B3F5005F02
:1024B0000FD823EA060623681A446B010E49CA5056
:1024C000D4E78B4208D2E17C41F02001E1741E4642
:1024D000F1E74FF40056EEE71E46ECE76B0103F11F
:1024E00082432D2283F80821A0E7034B03EB451319
:1024F00000229A762D22C9E7EC0000206930000006
:10250000D11F000070B54FF082431D8CADB20DB1EC
:102510000024DAE0998B1B8B9BB20B4013F0040F65
:1025200010D113F4007F18D113F0800F3CD113F0B9
:10253000700F44D113F0080F63D113F0010F75D160
:10254000002307E004224FF082439A83874B1B6EDF
:1025500098470123002BDBD070BD4FF0824340F23F
:1025600001229A839A8270221A830023012B14D8A5
:1025700019467E4A02EB4312128902F00F02032A27
:1025800002D00133DBB2F1E7784B03EB4113198939
:10259000C1F30A1100221A8100E00021734B5B6E27
:1025A000032098470123D5E780224FF082439A8386
:1025B0006E4B5B6E0021052098470123CAE74FF060
:1025C000824370229A839A8240F201221A83684BD6
:1025D00093F8203013F0010F0DD0654B1B6903F405
:1025E0001063B3F5106FF8D1604B5B6E00210220D1
:1025F00098470123AEE75E4B1B6913F4807FFAD046
:10260000F2E74FF08243002483F8004108229A83C6
:1026100070229A8240F201221A83564B9847534BFC
:102620005B6E214601209847012393E74FF08243D8
:1026300040F201229A839A8270221A834B4B5B6E7E
:10264000002104209847012384E713F0100F09D1DB
:1026500013F0400F09D113F0200F34D00021464B66
:10266000984730E0454B98472DE00121424B984771
:1026700029E013F0400F13D113F0080F14D113F019
:10268000020F15D1C27C02F00702012A1BD113F000
:10269000040F11D113F0100F15D0384B984712E0EA
:1026A0000121354B98470EE00121354B98470AE050
:1026B0000121344B984706E00021314B984702E056
:1026C00000212D4B98470134E4B2082C3FF644AF6B
:1026D000264A02F16000A3001E19B1000E46103117
:1026E0000144081D324492F88630FF2BEBD0837CE6
:1026F00003F00F0301229A401542E4D003F10802CF
:10270000520102F18242D2795B0103F1824393F8D4
:1027100009311340D7D0C27C02F04701012994D07F
:1027200012F0800FA5D113F0200FC9D113F0040FC0
:1027300010D113F0010F11D1C27C02F00702012A5F
:10274000C1D113F0080F0DD113F0100FBBD00B4BFC
:102750009847B8E700210A4B9847B4E701210A4B94
:102760009847B0E70121064B9847ACE7EC00002002
:102770000010004089210000A51F0000251F000057
:1027800071200000E12100004523000000B583B066
:1027900000238DF805304FF082439B7813F0010F32
:1027A00027D14FF082439B7813F0030FF9D14FF0FC
:1027B00082431B7813F0020F11D04FF0824213783E
:1027C00003F0FD0313704FF082439B7813F0030F67
:1027D000F9D14FF082439B7813F0020FF9D1012217
:1027E0004FF082431A704FF082439B7813F0030F2F
:1027F000F9D14FF082439B7813F0010FF9D1114BBF
:10280000114A1A665A669A66DA661A670F4B984733
:102810000F4B984704224FF082431A704FF08243C7
:102820009B7813F0030FF9D14FF08242054B5362AE
:102830009DF8053043F001031381002003B05DF8DB
:1028400004FB00BFEC000020C91E0000892100002D
:10285000CD1E000070B443B2DC0F10F00F0005D0A5
:10286000002B01DB034602E0831C00E003461E460A
:1028700003EB83039A001032464D2A4404320228A7
:1028800000F28480012918D000293DD006EB860390
:102890009A00414B134493F8863003F00F0308333A
:1028A0005B0103F182439A79102303FA04F4224274
:1028B00014BF0120002070BC7047A5F16001B30077
:1028C000981982000A4492F8862002F00F0210251F
:1028D000A540EDB202F10800400100F182404571CF
:1028E000202000FA04F4E4B2520102F1824282F89C
:1028F00009411E44B3000B4493F8872042F00802BC
:1029000083F887200020D6E7937C03F00F0303F1C0
:102910000801490101F1824188791021A140084252
:1029200025D0C9B203F10800400100F182400171D5
:102930002021A140CEB25D0105F1824585F80861F4
:10294000C07908420AD003F10801490101F182412E
:10295000CE71012000FA04F4E4B20C71D17C01F0D4
:102960000701012905D0D37C6FF3C303D374002082
:10297000A1E708335B0103F182439B7913F0300F29
:10298000F5D1D37C6FF3C303D374F0E76FF011007C
:1029900091E700BF4C010020EC00002030B400F0B3
:1029A0000F001A4A4301D418D5586268C2F30D02C9
:1029B000022822D821B300F108035B0103F182430E
:1029C0001B78DBB2112B1ED100F108035B0103F170
:1029D0008243DB7913F0100F02D1002030BC704726
:1029E0002C686B680C604B6000F108035B0103F11D
:1029F00082431021D9711046F0E76FF01100EDE726
:102A00006FF01100EAE76FF01200E7E7EC0000203A
:102A10002DE9F04F85B0037A4FFA83F84FEAD87961
:102A200013F00F0306D0B8F1000F01DB1D4602E0E2
:102A30009D1C00E01D462C465C4901F16006AA0081
:102A400057194FEA870E0EF1100EB6440EF1040628
:102A5000BD002944B1F8842040F2FF318A423DD0C4
:102A6000551EADB241680D40022B00F295800368FF
:102A7000B3F1005F0CD301EB030E4D4FBE4507D8F9
:102A800013F0030F04D1B8F1000F29DB91422AD2D1
:102A900004EB84039A00454B1344D3F88030002B99
:102AA0007DD04FF0010AB8F1000F09DB45B104EB0E
:102AB00084039A003D4B1344D3F88030002B71D02F
:102AC00004EB84039A00394B134493F8873013F0D6
:102AD000080F0BD0022005B0BDE8F08F1546C1E706
:102AE0004FF0000ADFE74FF0000ADCE7074603A8D3
:102AF000304B984704EB84039A002C4B134493F813
:102B0000873013F0400F25D1A30023449A00274BB0
:102B100003EB020B0BF180031946DB7943F0400312
:102B20000191CB7103A8244B98473B68CBF87430D4
:102B30007B68CBF878300023CBF87C300199CB79D7
:102B400069F3C7136AF34513CB717B7A3BB1DDB1EF
:102B5000002105E003A8184B98470120BBE700219E
:102B600004EB8404A200114B134493F8872061F313
:102B7000041283F88720B8F1000F07DB00213046EC
:102B80000E4B98470020A6E70121E9E700213046D7
:102B90000B4B984700209EE76FF011009BE76FF00A
:102BA000120098E76FF0110095E700BFEC000020DD
:102BB000FF1F0220F908000007090000452300005C
:102BC000E12100000B4629B130B1012807D00228CD
:102BD00008D07047054BF7E7054A93667047044AEB
:102BE000D3667047024A1367F3E700BFC91E0000AF
:102BF000EC00002008B5014B984708BD05250000F2
:102C000008B5014B984708BD0525000008B5014BE4
:102C1000984708BD0525000008B5014B984708BD39
:102C20000525000000B583B0184B9847184B4FF0AE
:102C300000625A6017499962174999625A6093F87D
:102C40005B1041F0040183F85B109A6141F2883215
:102C500042F210711148124B984702E00F48114B95
:102C6000984701A8104B9847094B19681A6A1C69C4
:102C700054400C40544001A80C4B984714F0006F8E
:102C8000ECD006480A4B9847EBE700BFD1020000A2
:102C90000080004100000240000802C0F002002055
:102CA000850A00000D0A0000F9080000070900006D
:102CB000490A000008B5054A92F82E3043F0010396
:102CC00082F82E30024B984708BD00BF001C00431D
:102CD000E92E0000024B1A6B002AFCD1704700BF9E
:102CE000001C00430C490D4A0968138808680088D5
:102CF00070B5062483420BD28E6804FB03F5755D24
:102D0000ED0702D401339BB2F4E71380002070BDBD
:102D100000231380012070BD7C030020D40200201A
:102D20002DE9F74F694C6A496A4E884723886FF34B
:102D3000410323808847884733680C275B684743F3
:102D40003B44B1465B68A362884732685368DB59ED
:102D5000636206235843936813F800E01C181EF0C2
:102D6000020F18BF0526A48818BF1E5493681B5C69
:102D70004FF0000513F01C0FAB46AA4653680BD169
:102D8000DA19907A544A02EB1012127A62F3134461
:102D9000120962F3155401E044F47C143B44187AA0
:102DA00088474A4B3A2897BFDA7ADA7A043060F3D8
:102DB000050288BF42F03F02DA728847434BDC616C
:102DC0008847D9F80030454A5B68D2F804803B4414
:102DD000DB7AB8F1000F02D0042B28BF042363F381
:102DE000030A0223394C3A4E63F3C40B042363F302
:102DF0000A2B6FF3061A8847A4F806B0884784F8B0
:102E00000AA0D9F800305B683B44587A000988472B
:102E1000A36960F31653A361D9F800305B681F44BF
:102E20007B7A63F30A2545F040056FF3C71545F437
:102E3000004545F004058847ADB20723258084F896
:102E40002E308847238843F0020323808847B8F157
:102E5000000F2ED0B047E07A00F03F00B047A169E4
:102E6000C1F30321B0472788B04723886FF341039C
:102E70002380B047A57845F01205EDB2B047A570A4
:102E8000B047174BA57A1A68137843F008031370FC
:102E9000B047A37AC7F302276FF30303EDB2A3721F
:102EA0003A46104B0095C047B047238843F00203D1
:102EB0002380B047237D054A43F00203237592F82F
:102EC0002F30DB07FBD503B0BDE8F08F001C0043BB
:102ED000D52C00007C03002018320000D402002012
:102EE000740300200A1C00432DE9F041444A45497F
:102EF000454CB2F840300D68218844489BB225F813
:102F00001130072182F82E1011886FF341011180D2
:102F10000268268851680C2202FB0612D27A042A23
:102F200018D96168B1B1217D0131C9B22175A1699A
:102F30001944A161043A94F814E0D2B2012101FAD3
:102F400002F7BE4508D1A76927FA02F225F8162034
:102F50000A4602E025F8163000222D490978012999
:102F600003D0022922D0BDE8F0810068238845689B
:102F700025490C2000FB0350C07A042808D9486872
:102F800030B13AB1002201338A610B800A7501E049
:102F9000013323801F4B984720B91F4B2088984747
:102FA000042329E0E368BDE8F0411847066820885B
:102FB00075680C2202FB0055AA7A02F00F01EA7A2A
:102FC000042A28BF042291423ABF521AD2B20022E8
:102FD000B1681341114A062505FB001112684D889E
:102FE000927998B2AE1AB04202DD2A44904202DBD6
:102FF0004B802369984702232372BDE8F08100BF0C
:10300000001C004380030020D40200207C03002029
:1030100044000020E52C0000212D00007803002052
:1030200070B50D4E0D4CA41BA4100025A54209D16E
:103030000B4E0C4C00F008F9A41BA4100025A5426F
:1030400005D170BD56F8253098470135EEE756F8A2
:10305000253098470135F2E7543200005432000021
:10306000543200005832000010B5431E0A44914209
:1030700000D110BD11F8014B03F8014FF7E70244EE
:103080000346934200D1704703F8011BF9E70000A3
:103090002E2E2F68616C2F7372632F68616C5F69CD
:1030A00032635F6D5F73796E632E63002E2E2F681F
:1030B000616C2F7372632F68616C5F70776D2E6324
:1030C000000000002E2E2F68616C2F7372632F6832
:1030D000616C5F717370695F73796E632E6300005A
:1030E0002E2E2F68616C2F7372632F68616C5F7373
:1030F00070695F6D5F73796E632E63002E2E2F688B
:10310000616C2F7372632F68616C5F74696D657297
:103110002E6300002E2E2F68616C2F7574696C73FE
:103120002F7372632F7574696C735F6C6973742E7F
:10313000630000002E2E2F68706C2F717370692F42
:1031400068706C5F717370692E6300002E2E2F689B
:10315000706C2F7274632F68706C5F7274632E636F
:103160000000000000300040003400400020014119
:103170000040014100000043000400430000000043
:10318000000000000000000000000000000000003F
:1031900000000000010000001400200000010000F9
:1031A000E5E600000000D700006CDC020000000033
:1031B0000000000000000000000000000C003000D3
:1031C0000000020000000000FE00FF0104000000FB
:1031D0002E2E2F68706C2F736572636F6D2F687061
:1031E0006C5F736572636F6D2E630000254A00008B
:1031F00004080000940200200000000040000000CD
:1032000054020020000000004000000014020020D2
:10321000000000004000000007001300350090008F
:103220003F1C0B05030103484904060708090A0B64
:1032300010111213141516171B1E4243444546471E
:103240004C4D4E4F40410000F8B500BFF8BC08BCE3
:103250009E46704789020000F8B500BFF8BC08BC64
:083260009E4670476502000064
:10326800006001415500000000030000020000005A
:103278000000000000000000000000000000000046
:1032880000000000000000000000000010270000FF
:1032980000600141550001006F170000B70B0000E6
:0832A80002000000010000001B
:00000001FF
